{
  "_format": "hh-sol-artifact-1",
  "contractName": "VaultCopycat",
  "sourceName": "contracts/VaultCopycat.sol",
  "abi": [
    {
      "inputs": [
        {
          "internalType": "uint256",
          "name": "_num",
          "type": "uint256"
        }
      ],
      "name": "storeNum",
      "outputs": [],
      "stateMutability": "nonpayable",
      "type": "function"
    }
  ],
  "bytecode": "0x608060405234801561001057600080fd5b5060e38061001f6000396000f3fe6080604052348015600f57600080fd5b506004361060285760003560e01c80639a67c8b114602d575b600080fd5b60436004803603810190603f91906085565b6045565b005b8060008190555050565b600080fd5b6000819050919050565b6065816054565b8114606f57600080fd5b50565b600081359050607f81605e565b92915050565b6000602082840312156098576097604f565b5b600060a4848285016072565b9150509291505056fea26469706673582212209bc7b8061a3c007e932f7e74d53450ef8a37b9d1a45c2ab3387b40f56e764a2c64736f6c63430008090033",
  "linkReferences": {},
  "deployedLinkReferences": {}
}