{
  "_format": "hh-sol-artifact-1",
  "contractName": "NumberVault",
  "sourceName": "contracts/NumberVault.sol",
  "abi": [
    {
      "anonymous": false,
      "inputs": [
        {
          "indexed": false,
          "internalType": "uint256",
          "name": "",
          "type": "uint256"
        }
      ],
      "name": "NumberStored",
      "type": "event"
    },
    {
      "inputs": [
        {
          "internalType": "uint256",
          "name": "_num",
          "type": "uint256"
        }
      ],
      "name": "storeNum",
      "outputs": [],
      "stateMutability": "nonpayable",
      "type": "function"
    }
  ],
  "bytecode": "0x608060405234801561001057600080fd5b50610157806100206000396000f3fe608060405234801561001057600080fd5b506004361061002b5760003560e01c80639a67c8b114610030575b600080fd5b61004a600480360381019061004591906100ca565b61004c565b005b806000819055507f3564ffb2fd8f93d7b0e9d1173ffdff5ee9775d860bfe82eaca0d0dbe07c8b6346000546040516100849190610106565b60405180910390a150565b600080fd5b6000819050919050565b6100a781610094565b81146100b257600080fd5b50565b6000813590506100c48161009e565b92915050565b6000602082840312156100e0576100df61008f565b5b60006100ee848285016100b5565b91505092915050565b61010081610094565b82525050565b600060208201905061011b60008301846100f7565b9291505056fea264697066735822122080696c4f1ebd7a18b8b3fe9fa283fb9469eac2e60a71840f8e4ba9060abd14de64736f6c63430008090033",
  "linkReferences": {},
  "deployedLinkReferences": {}
}